{
  "_format": "hh-sol-artifact-1",
  "contractName": "DepthToken",
  "sourceName": "contracts/Token.sol",
  "abi": [
    {
      "inputs": [],
      "stateMutability": "nonpayable",
      "type": "constructor"
    },
    {
      "inputs": [
        {
          "internalType": "address",
          "name": "spender",
          "type": "address"
        },
        {
          "internalType": "uint256",
          "name": "allowance",
          "type": "uint256"
        },
        {
          "internalType": "uint256",
          "name": "needed",
          "type": "uint256"
        }
      ],
      "name": "ERC20InsufficientAllowance",
      "type": "error"
    },
    {
      "inputs": [
        {
          "internalType": "address",
          "name": "sender",
          "type": "address"
        },
        {
          "internalType": "uint256",
          "name": "balance",
          "type": "uint256"
        },
        {
          "internalType": "uint256",
          "name": "needed",
          "type": "uint256"
        }
      ],
      "name": "ERC20InsufficientBalance",
      "type": "error"
    },
    {
      "inputs": [
        {
          "internalType": "address",
          "name": "approver",
          "type": "address"
        }
      ],
      "name": "ERC20InvalidApprover",
      "type": "error"
    },
    {
      "inputs": [
        {
          "internalType": "address",
          "name": "receiver",
          "type": "address"
        }
      ],
      "name": "ERC20InvalidReceiver",
      "type": "error"
    },
    {
      "inputs": [
        {
          "internalType": "address",
          "name": "sender",
          "type": "address"
        }
      ],
      "name": "ERC20InvalidSender",
      "type": "error"
    },
    {
      "inputs": [
        {
          "internalType": "address",
          "name": "spender",
          "type": "address"
        }
      ],
      "name": "ERC20InvalidSpender",
      "type": "error"
    },
    {
      "inputs": [
        {
          "internalType": "address",
          "name": "owner",
          "type": "address"
        }
      ],
      "name": "OwnableInvalidOwner",
      "type": "error"
    },
    {
      "inputs": [
        {
          "internalType": "address",
          "name": "account",
          "type": "address"
        }
      ],
      "name": "OwnableUnauthorizedAccount",
      "type": "error"
    },
    {
      "anonymous": false,
      "inputs": [
        {
          "indexed": true,
          "internalType": "address",
          "name": "owner",
          "type": "address"
        },
        {
          "indexed": true,
          "internalType": "address",
          "name": "spender",
          "type": "address"
        },
        {
          "indexed": false,
          "internalType": "uint256",
          "name": "value",
          "type": "uint256"
        }
      ],
      "name": "Approval",
      "type": "event"
    },
    {
      "anonymous": false,
      "inputs": [
        {
          "indexed": true,
          "internalType": "address",
          "name": "previousOwner",
          "type": "address"
        },
        {
          "indexed": true,
          "internalType": "address",
          "name": "newOwner",
          "type": "address"
        }
      ],
      "name": "OwnershipTransferred",
      "type": "event"
    },
    {
      "anonymous": false,
      "inputs": [
        {
          "indexed": true,
          "internalType": "address",
          "name": "from",
          "type": "address"
        },
        {
          "indexed": true,
          "internalType": "address",
          "name": "to",
          "type": "address"
        },
        {
          "indexed": false,
          "internalType": "uint256",
          "name": "value",
          "type": "uint256"
        }
      ],
      "name": "Transfer",
      "type": "event"
    },
    {
      "inputs": [
        {
          "internalType": "address",
          "name": "owner",
          "type": "address"
        },
        {
          "internalType": "address",
          "name": "spender",
          "type": "address"
        }
      ],
      "name": "allowance",
      "outputs": [
        {
          "internalType": "uint256",
          "name": "",
          "type": "uint256"
        }
      ],
      "stateMutability": "view",
      "type": "function"
    },
    {
      "inputs": [
        {
          "internalType": "address",
          "name": "spender",
          "type": "address"
        },
        {
          "internalType": "uint256",
          "name": "value",
          "type": "uint256"
        }
      ],
      "name": "approve",
      "outputs": [
        {
          "internalType": "bool",
          "name": "",
          "type": "bool"
        }
      ],
      "stateMutability": "nonpayable",
      "type": "function"
    },
    {
      "inputs": [
        {
          "internalType": "address",
          "name": "account",
          "type": "address"
        }
      ],
      "name": "balanceOf",
      "outputs": [
        {
          "internalType": "uint256",
          "name": "",
          "type": "uint256"
        }
      ],
      "stateMutability": "view",
      "type": "function"
    },
    {
      "inputs": [],
      "name": "blockReward",
      "outputs": [
        {
          "internalType": "uint256",
          "name": "",
          "type": "uint256"
        }
      ],
      "stateMutability": "view",
      "type": "function"
    },
    {
      "inputs": [],
      "name": "decimals",
      "outputs": [
        {
          "internalType": "uint8",
          "name": "",
          "type": "uint8"
        }
      ],
      "stateMutability": "view",
      "type": "function"
    },
    {
      "inputs": [],
      "name": "designatedAddress",
      "outputs": [
        {
          "internalType": "address",
          "name": "",
          "type": "address"
        }
      ],
      "stateMutability": "view",
      "type": "function"
    },
    {
      "inputs": [
        {
          "internalType": "address",
          "name": "miner",
          "type": "address"
        },
        {
          "internalType": "uint256",
          "name": "rewardAmount",
          "type": "uint256"
        }
      ],
      "name": "mintMinerReward",
      "outputs": [],
      "stateMutability": "nonpayable",
      "type": "function"
    },
    {
      "inputs": [],
      "name": "name",
      "outputs": [
        {
          "internalType": "string",
          "name": "",
          "type": "string"
        }
      ],
      "stateMutability": "view",
      "type": "function"
    },
    {
      "inputs": [],
      "name": "owner",
      "outputs": [
        {
          "internalType": "address",
          "name": "",
          "type": "address"
        }
      ],
      "stateMutability": "view",
      "type": "function"
    },
    {
      "inputs": [],
      "name": "renounceOwnership",
      "outputs": [],
      "stateMutability": "nonpayable",
      "type": "function"
    },
    {
      "inputs": [
        {
          "internalType": "uint256",
          "name": "amount",
          "type": "uint256"
        }
      ],
      "name": "setBlockReward",
      "outputs": [],
      "stateMutability": "nonpayable",
      "type": "function"
    },
    {
      "inputs": [],
      "name": "symbol",
      "outputs": [
        {
          "internalType": "string",
          "name": "",
          "type": "string"
        }
      ],
      "stateMutability": "view",
      "type": "function"
    },
    {
      "inputs": [],
      "name": "totalSupply",
      "outputs": [
        {
          "internalType": "uint256",
          "name": "",
          "type": "uint256"
        }
      ],
      "stateMutability": "view",
      "type": "function"
    },
    {
      "inputs": [
        {
          "internalType": "address",
          "name": "to",
          "type": "address"
        },
        {
          "internalType": "uint256",
          "name": "value",
          "type": "uint256"
        }
      ],
      "name": "transfer",
      "outputs": [
        {
          "internalType": "bool",
          "name": "",
          "type": "bool"
        }
      ],
      "stateMutability": "nonpayable",
      "type": "function"
    },
    {
      "inputs": [
        {
          "internalType": "address",
          "name": "from",
          "type": "address"
        },
        {
          "internalType": "address",
          "name": "to",
          "type": "address"
        },
        {
          "internalType": "uint256",
          "name": "value",
          "type": "uint256"
        }
      ],
      "name": "transferFrom",
      "outputs": [
        {
          "internalType": "bool",
          "name": "",
          "type": "bool"
        }
      ],
      "stateMutability": "nonpayable",
      "type": "function"
    },
    {
      "inputs": [
        {
          "internalType": "address",
          "name": "newOwner",
          "type": "address"
        }
      ],
      "name": "transferOwnership",
      "outputs": [],
      "stateMutability": "nonpayable",
      "type": "function"
    },
    {
      "inputs": [],
      "name": "withdrawRemainingTokens",
      "outputs": [],
      "stateMutability": "nonpayable",
      "type": "function"
    }
  ],
  "bytecode": "0x60806040523480156200001157600080fd5b50336040518060400160405280600a81526020017f4465707468546f6b656e000000000000000000000000000000000000000000008152506040518060400160405280600381526020017f44504800000000000000000000000000000000000000000000000000000000008152508160039081620000909190620007ef565b508060049081620000a29190620007ef565b505050600073ffffffffffffffffffffffffffffffffffffffff168173ffffffffffffffffffffffffffffffffffffffff16036200011a5760006040517f1e4fbdf70000000000000000000000000000000000000000000000000000000081526004016200011191906200091b565b60405180910390fd5b6200012b816200014660201b60201c565b5062000140336103e86200020c60201b60201c565b62000a0d565b6000600560009054906101000a900473ffffffffffffffffffffffffffffffffffffffff16905081600560006101000a81548173ffffffffffffffffffffffffffffffffffffffff021916908373ffffffffffffffffffffffffffffffffffffffff1602179055508173ffffffffffffffffffffffffffffffffffffffff168173ffffffffffffffffffffffffffffffffffffffff167f8be0079c531659141344cd1fd0a4f28419497f9722a3daafe3b4186f6b6457e060405160405180910390a35050565b600073ffffffffffffffffffffffffffffffffffffffff168273ffffffffffffffffffffffffffffffffffffffff1603620002815760006040517fec442f050000000000000000000000000000000000000000000000000000000081526004016200027891906200091b565b60405180910390fd5b62000295600083836200029960201b60201c565b5050565b600073ffffffffffffffffffffffffffffffffffffffff168373ffffffffffffffffffffffffffffffffffffffff161480156200030157504173ffffffffffffffffffffffffffffffffffffffff168273ffffffffffffffffffffffffffffffffffffffff16145b6200031757620003166200032f60201b60201c565b5b6200032a8383836200034560201b60201c565b505050565b62000343416103e86200020c60201b60201c565b565b600073ffffffffffffffffffffffffffffffffffffffff168373ffffffffffffffffffffffffffffffffffffffff16036200039b5780600260008282546200038e919062000967565b9250508190555062000471565b60008060008573ffffffffffffffffffffffffffffffffffffffff1673ffffffffffffffffffffffffffffffffffffffff168152602001908152602001600020549050818110156200042a578381836040517fe450d38c0000000000000000000000000000000000000000000000000000000081526004016200042193929190620009b3565b60405180910390fd5b8181036000808673ffffffffffffffffffffffffffffffffffffffff1673ffffffffffffffffffffffffffffffffffffffff16815260200190815260200160002081905550505b600073ffffffffffffffffffffffffffffffffffffffff168273ffffffffffffffffffffffffffffffffffffffff1603620004bc578060026000828254039250508190555062000509565b806000808473ffffffffffffffffffffffffffffffffffffffff1673ffffffffffffffffffffffffffffffffffffffff168152602001908152602001600020600082825401925050819055505b8173ffffffffffffffffffffffffffffffffffffffff168373ffffffffffffffffffffffffffffffffffffffff167fddf252ad1be2c89b69c2b068fc378daa952ba7f163c4a11628f55a4df523b3ef83604051620005689190620009f0565b60405180910390a3505050565b600081519050919050565b7f4e487b7100000000000000000000000000000000000000000000000000000000600052604160045260246000fd5b7f4e487b7100000000000000000000000000000000000000000000000000000000600052602260045260246000fd5b60006002820490506001821680620005f757607f821691505b6020821081036200060d576200060c620005af565b5b50919050565b60008190508160005260206000209050919050565b60006020601f8301049050919050565b600082821b905092915050565b600060088302620006777fffffffffffffffffffffffffffffffffffffffffffffffffffffffffffffffff8262000638565b62000683868362000638565b95508019841693508086168417925050509392505050565b6000819050919050565b6000819050919050565b6000620006d0620006ca620006c4846200069b565b620006a5565b6200069b565b9050919050565b6000819050919050565b620006ec83620006af565b62000704620006fb82620006d7565b84845462000645565b825550505050565b600090565b6200071b6200070c565b62000728818484620006e1565b505050565b5b8181101562000750576200074460008262000711565b6001810190506200072e565b5050565b601f8211156200079f57620007698162000613565b620007748462000628565b8101602085101562000784578190505b6200079c620007938562000628565b8301826200072d565b50505b505050565b600082821c905092915050565b6000620007c460001984600802620007a4565b1980831691505092915050565b6000620007df8383620007b1565b9150826002028217905092915050565b620007fa8262000575565b67ffffffffffffffff81111562000816576200081562000580565b5b620008228254620005de565b6200082f82828562000754565b600060209050601f83116001811462000867576000841562000852578287015190505b6200085e8582620007d1565b865550620008ce565b601f198416620008778662000613565b60005b82811015620008a1578489015182556001820191506020850194506020810190506200087a565b86831015620008c15784890151620008bd601f891682620007b1565b8355505b6001600288020188555050505b505050505050565b600073ffffffffffffffffffffffffffffffffffffffff82169050919050565b60006200090382620008d6565b9050919050565b6200091581620008f6565b82525050565b60006020820190506200093260008301846200090a565b92915050565b7f4e487b7100000000000000000000000000000000000000000000000000000000600052601160045260246000fd5b600062000974826200069b565b915062000981836200069b565b92508282019050808211156200099c576200099b62000938565b5b92915050565b620009ad816200069b565b82525050565b6000606082019050620009ca60008301866200090a565b620009d96020830185620009a2565b620009e86040830184620009a2565b949350505050565b600060208201905062000a076000830184620009a2565b92915050565b6115b58062000a1d6000396000f3fe608060405234801561001057600080fd5b506004361061010b5760003560e01c806370a08231116100a257806395d89b411161007157806395d89b4114610284578063a9059cbb146102a2578063dd62ed3e146102d2578063f2fde38b14610302578063fa607f651461031e5761010b565b806370a0823114610222578063715018a6146102525780638afbf6691461025c5780638da5cb5b146102665761010b565b80631a18e707116100de5780631a18e7071461019a57806323b872dd146101b6578063313ce567146101e65780633bbca0f0146102045761010b565b806306fdde0314610110578063095ea7b31461012e5780630ac168a11461015e57806318160ddd1461017c575b600080fd5b61011861033a565b60405161012591906110de565b60405180910390f35b61014860048036038101906101439190611199565b6103cc565b60405161015591906111f4565b60405180910390f35b6101666103ef565b604051610173919061121e565b60405180910390f35b6101846103f5565b604051610191919061121e565b60405180910390f35b6101b460048036038101906101af9190611239565b6103ff565b005b6101d060048036038101906101cb9190611266565b610454565b6040516101dd91906111f4565b60405180910390f35b6101ee610483565b6040516101fb91906112d5565b60405180910390f35b61020c61048c565b60405161021991906112ff565b60405180910390f35b61023c6004803603810190610237919061131a565b6104b2565b604051610249919061121e565b60405180910390f35b61025a6104fa565b005b61026461050e565b005b61026e61059b565b60405161027b91906112ff565b60405180910390f35b61028c6105c5565b60405161029991906110de565b60405180910390f35b6102bc60048036038101906102b79190611199565b610657565b6040516102c991906111f4565b60405180910390f35b6102ec60048036038101906102e79190611347565b61067a565b6040516102f9919061121e565b60405180910390f35b61031c6004803603810190610317919061131a565b610701565b005b61033860048036038101906103339190611199565b610787565b005b606060038054610349906113b6565b80601f0160208091040260200160405190810160405280929190818152602001828054610375906113b6565b80156103c25780601f10610397576101008083540402835291602001916103c2565b820191906000526020600020905b8154815290600101906020018083116103a557829003601f168201915b5050505050905090565b6000806103d761084f565b90506103e4818585610857565b600191505092915050565b60065481565b6000600254905090565b610407610869565b6000811161044a576040517f08c379a000000000000000000000000000000000000000000000000000000000815260040161044190611459565b60405180910390fd5b8060068190555050565b60008061045f61084f565b905061046c8582856108f0565b610477858585610984565b60019150509392505050565b60006012905090565b600760009054906101000a900473ffffffffffffffffffffffffffffffffffffffff1681565b60008060008373ffffffffffffffffffffffffffffffffffffffff1673ffffffffffffffffffffffffffffffffffffffff168152602001908152602001600020549050919050565b610502610869565b61050c6000610a78565b565b610516610869565b61054b30600760009054906101000a900473ffffffffffffffffffffffffffffffffffffffff16610546306104b2565b610984565b61055361059b565b73ffffffffffffffffffffffffffffffffffffffff166108fc479081150290604051600060405180830381858888f19350505050158015610598573d6000803e3d6000fd5b50565b6000600560009054906101000a900473ffffffffffffffffffffffffffffffffffffffff16905090565b6060600480546105d4906113b6565b80601f0160208091040260200160405190810160405280929190818152602001828054610600906113b6565b801561064d5780601f106106225761010080835404028352916020019161064d565b820191906000526020600020905b81548152906001019060200180831161063057829003601f168201915b5050505050905090565b60008061066261084f565b905061066f818585610984565b600191505092915050565b6000600160008473ffffffffffffffffffffffffffffffffffffffff1673ffffffffffffffffffffffffffffffffffffffff16815260200190815260200160002060008373ffffffffffffffffffffffffffffffffffffffff1673ffffffffffffffffffffffffffffffffffffffff16815260200190815260200160002054905092915050565b610709610869565b600073ffffffffffffffffffffffffffffffffffffffff168173ffffffffffffffffffffffffffffffffffffffff160361077b5760006040517f1e4fbdf700000000000000000000000000000000000000000000000000000000815260040161077291906112ff565b60405180910390fd5b61078481610a78565b50565b61078f610869565b600073ffffffffffffffffffffffffffffffffffffffff168273ffffffffffffffffffffffffffffffffffffffff16036107fe576040517f08c379a00000000000000000000000000000000000000000000000000000000081526004016107f5906114c5565b60405180910390fd5b60008111610841576040517f08c379a000000000000000000000000000000000000000000000000000000000815260040161083890611459565b60405180910390fd5b61084b8282610b3e565b5050565b600033905090565b6108648383836001610bc0565b505050565b61087161084f565b73ffffffffffffffffffffffffffffffffffffffff1661088f61059b565b73ffffffffffffffffffffffffffffffffffffffff16146108ee576108b261084f565b6040517f118cdaa70000000000000000000000000000000000000000000000000000000081526004016108e591906112ff565b60405180910390fd5b565b60006108fc848461067a565b90507fffffffffffffffffffffffffffffffffffffffffffffffffffffffffffffffff811461097e578181101561096e578281836040517ffb8f41b2000000000000000000000000000000000000000000000000000000008152600401610965939291906114e5565b60405180910390fd5b61097d84848484036000610bc0565b5b50505050565b600073ffffffffffffffffffffffffffffffffffffffff168373ffffffffffffffffffffffffffffffffffffffff16036109f65760006040517f96c6fd1e0000000000000000000000000000000000000000000000000000000081526004016109ed91906112ff565b60405180910390fd5b600073ffffffffffffffffffffffffffffffffffffffff168273ffffffffffffffffffffffffffffffffffffffff1603610a685760006040517fec442f05000000000000000000000000000000000000000000000000000000008152600401610a5f91906112ff565b60405180910390fd5b610a73838383610d97565b505050565b6000600560009054906101000a900473ffffffffffffffffffffffffffffffffffffffff16905081600560006101000a81548173ffffffffffffffffffffffffffffffffffffffff021916908373ffffffffffffffffffffffffffffffffffffffff1602179055508173ffffffffffffffffffffffffffffffffffffffff168173ffffffffffffffffffffffffffffffffffffffff167f8be0079c531659141344cd1fd0a4f28419497f9722a3daafe3b4186f6b6457e060405160405180910390a35050565b600073ffffffffffffffffffffffffffffffffffffffff168273ffffffffffffffffffffffffffffffffffffffff1603610bb05760006040517fec442f05000000000000000000000000000000000000000000000000000000008152600401610ba791906112ff565b60405180910390fd5b610bbc60008383610d97565b5050565b600073ffffffffffffffffffffffffffffffffffffffff168473ffffffffffffffffffffffffffffffffffffffff1603610c325760006040517fe602df05000000000000000000000000000000000000000000000000000000008152600401610c2991906112ff565b60405180910390fd5b600073ffffffffffffffffffffffffffffffffffffffff168373ffffffffffffffffffffffffffffffffffffffff1603610ca45760006040517f94280d62000000000000000000000000000000000000000000000000000000008152600401610c9b91906112ff565b60405180910390fd5b81600160008673ffffffffffffffffffffffffffffffffffffffff1673ffffffffffffffffffffffffffffffffffffffff16815260200190815260200160002060008573ffffffffffffffffffffffffffffffffffffffff1673ffffffffffffffffffffffffffffffffffffffff168152602001908152602001600020819055508015610d91578273ffffffffffffffffffffffffffffffffffffffff168473ffffffffffffffffffffffffffffffffffffffff167f8c5be1e5ebec7d5bd14f71427d1e84f3dd0314c0f7b2291e5b200ac8c7c3b92584604051610d88919061121e565b60405180910390a35b50505050565b600073ffffffffffffffffffffffffffffffffffffffff168373ffffffffffffffffffffffffffffffffffffffff16148015610dfe57504173ffffffffffffffffffffffffffffffffffffffff168273ffffffffffffffffffffffffffffffffffffffff16145b610e0b57610e0a610e1b565b5b610e16838383610e29565b505050565b610e27416103e8610b3e565b565b600073ffffffffffffffffffffffffffffffffffffffff168373ffffffffffffffffffffffffffffffffffffffff1603610e7b578060026000828254610e6f919061154b565b92505081905550610f4e565b60008060008573ffffffffffffffffffffffffffffffffffffffff1673ffffffffffffffffffffffffffffffffffffffff16815260200190815260200160002054905081811015610f07578381836040517fe450d38c000000000000000000000000000000000000000000000000000000008152600401610efe939291906114e5565b60405180910390fd5b8181036000808673ffffffffffffffffffffffffffffffffffffffff1673ffffffffffffffffffffffffffffffffffffffff16815260200190815260200160002081905550505b600073ffffffffffffffffffffffffffffffffffffffff168273ffffffffffffffffffffffffffffffffffffffff1603610f975780600260008282540392505081905550610fe4565b806000808473ffffffffffffffffffffffffffffffffffffffff1673ffffffffffffffffffffffffffffffffffffffff168152602001908152602001600020600082825401925050819055505b8173ffffffffffffffffffffffffffffffffffffffff168373ffffffffffffffffffffffffffffffffffffffff167fddf252ad1be2c89b69c2b068fc378daa952ba7f163c4a11628f55a4df523b3ef83604051611041919061121e565b60405180910390a3505050565b600081519050919050565b600082825260208201905092915050565b60005b8381101561108857808201518184015260208101905061106d565b60008484015250505050565b6000601f19601f8301169050919050565b60006110b08261104e565b6110ba8185611059565b93506110ca81856020860161106a565b6110d381611094565b840191505092915050565b600060208201905081810360008301526110f881846110a5565b905092915050565b600080fd5b600073ffffffffffffffffffffffffffffffffffffffff82169050919050565b600061113082611105565b9050919050565b61114081611125565b811461114b57600080fd5b50565b60008135905061115d81611137565b92915050565b6000819050919050565b61117681611163565b811461118157600080fd5b50565b6000813590506111938161116d565b92915050565b600080604083850312156111b0576111af611100565b5b60006111be8582860161114e565b92505060206111cf85828601611184565b9150509250929050565b60008115159050919050565b6111ee816111d9565b82525050565b600060208201905061120960008301846111e5565b92915050565b61121881611163565b82525050565b6000602082019050611233600083018461120f565b92915050565b60006020828403121561124f5761124e611100565b5b600061125d84828501611184565b91505092915050565b60008060006060848603121561127f5761127e611100565b5b600061128d8682870161114e565b935050602061129e8682870161114e565b92505060406112af86828701611184565b9150509250925092565b600060ff82169050919050565b6112cf816112b9565b82525050565b60006020820190506112ea60008301846112c6565b92915050565b6112f981611125565b82525050565b600060208201905061131460008301846112f0565b92915050565b6000602082840312156113305761132f611100565b5b600061133e8482850161114e565b91505092915050565b6000806040838503121561135e5761135d611100565b5b600061136c8582860161114e565b925050602061137d8582860161114e565b9150509250929050565b7f4e487b7100000000000000000000000000000000000000000000000000000000600052602260045260246000fd5b600060028204905060018216806113ce57607f821691505b6020821081036113e1576113e0611387565b5b50919050565b7f52657761726420616d6f756e74206d757374206265206772656174657220746860008201527f616e203000000000000000000000000000000000000000000000000000000000602082015250565b6000611443602483611059565b915061144e826113e7565b604082019050919050565b6000602082019050818103600083015261147281611436565b9050919050565b7f496e76616c6964206d696e657220616464726573730000000000000000000000600082015250565b60006114af601583611059565b91506114ba82611479565b602082019050919050565b600060208201905081810360008301526114de816114a2565b9050919050565b60006060820190506114fa60008301866112f0565b611507602083018561120f565b611514604083018461120f565b949350505050565b7f4e487b7100000000000000000000000000000000000000000000000000000000600052601160045260246000fd5b600061155682611163565b915061156183611163565b92508282019050808211156115795761157861151c565b5b9291505056fea2646970667358221220b15267b162a4abaeee56f4c5247ffd3945060e9e30c9ad73096f65b6ab1dcdcc64736f6c63430008180033",
  "linkReferences": {},
  "deployedLinkReferences": {}
}