{
  "_format": "hh-sol-artifact-1",
  "contractName": "MyERC721Token",
  "sourceName": "contracts/Token721.sol",
  "abi": [
    {
      "inputs": [
        {
          "internalType": "string",
          "name": "name_",
          "type": "string"
        },
        {
          "internalType": "string",
          "name": "symbol_",
          "type": "string"
        },
        {
          "internalType": "address",
          "name": "initialOwner",
          "type": "address"
        }
      ],
      "stateMutability": "nonpayable",
      "type": "constructor"
    },
    {
      "inputs": [
        {
          "internalType": "address",
          "name": "sender",
          "type": "address"
        },
        {
          "internalType": "uint256",
          "name": "tokenId",
          "type": "uint256"
        },
        {
          "internalType": "address",
          "name": "owner",
          "type": "address"
        }
      ],
      "name": "ERC721IncorrectOwner",
      "type": "error"
    },
    {
      "inputs": [
        {
          "internalType": "address",
          "name": "operator",
          "type": "address"
        },
        {
          "internalType": "uint256",
          "name": "tokenId",
          "type": "uint256"
        }
      ],
      "name": "ERC721InsufficientApproval",
      "type": "error"
    },
    {
      "inputs": [
        {
          "internalType": "address",
          "name": "approver",
          "type": "address"
        }
      ],
      "name": "ERC721InvalidApprover",
      "type": "error"
    },
    {
      "inputs": [
        {
          "internalType": "address",
          "name": "operator",
          "type": "address"
        }
      ],
      "name": "ERC721InvalidOperator",
      "type": "error"
    },
    {
      "inputs": [
        {
          "internalType": "address",
          "name": "owner",
          "type": "address"
        }
      ],
      "name": "ERC721InvalidOwner",
      "type": "error"
    },
    {
      "inputs": [
        {
          "internalType": "address",
          "name": "receiver",
          "type": "address"
        }
      ],
      "name": "ERC721InvalidReceiver",
      "type": "error"
    },
    {
      "inputs": [
        {
          "internalType": "address",
          "name": "sender",
          "type": "address"
        }
      ],
      "name": "ERC721InvalidSender",
      "type": "error"
    },
    {
      "inputs": [
        {
          "internalType": "uint256",
          "name": "tokenId",
          "type": "uint256"
        }
      ],
      "name": "ERC721NonexistentToken",
      "type": "error"
    },
    {
      "inputs": [
        {
          "internalType": "address",
          "name": "owner",
          "type": "address"
        }
      ],
      "name": "OwnableInvalidOwner",
      "type": "error"
    },
    {
      "inputs": [
        {
          "internalType": "address",
          "name": "account",
          "type": "address"
        }
      ],
      "name": "OwnableUnauthorizedAccount",
      "type": "error"
    },
    {
      "anonymous": false,
      "inputs": [
        {
          "indexed": true,
          "internalType": "address",
          "name": "owner",
          "type": "address"
        },
        {
          "indexed": true,
          "internalType": "address",
          "name": "approved",
          "type": "address"
        },
        {
          "indexed": true,
          "internalType": "uint256",
          "name": "tokenId",
          "type": "uint256"
        }
      ],
      "name": "Approval",
      "type": "event"
    },
    {
      "anonymous": false,
      "inputs": [
        {
          "indexed": true,
          "internalType": "address",
          "name": "owner",
          "type": "address"
        },
        {
          "indexed": true,
          "internalType": "address",
          "name": "operator",
          "type": "address"
        },
        {
          "indexed": false,
          "internalType": "bool",
          "name": "approved",
          "type": "bool"
        }
      ],
      "name": "ApprovalForAll",
      "type": "event"
    },
    {
      "anonymous": false,
      "inputs": [
        {
          "indexed": true,
          "internalType": "address",
          "name": "previousOwner",
          "type": "address"
        },
        {
          "indexed": true,
          "internalType": "address",
          "name": "newOwner",
          "type": "address"
        }
      ],
      "name": "OwnershipTransferred",
      "type": "event"
    },
    {
      "anonymous": false,
      "inputs": [
        {
          "indexed": true,
          "internalType": "address",
          "name": "from",
          "type": "address"
        },
        {
          "indexed": true,
          "internalType": "address",
          "name": "to",
          "type": "address"
        },
        {
          "indexed": true,
          "internalType": "uint256",
          "name": "tokenId",
          "type": "uint256"
        }
      ],
      "name": "Transfer",
      "type": "event"
    },
    {
      "inputs": [
        {
          "internalType": "address",
          "name": "to",
          "type": "address"
        },
        {
          "internalType": "uint256",
          "name": "tokenId",
          "type": "uint256"
        }
      ],
      "name": "approve",
      "outputs": [],
      "stateMutability": "nonpayable",
      "type": "function"
    },
    {
      "inputs": [
        {
          "internalType": "address",
          "name": "owner",
          "type": "address"
        }
      ],
      "name": "balanceOf",
      "outputs": [
        {
          "internalType": "uint256",
          "name": "",
          "type": "uint256"
        }
      ],
      "stateMutability": "view",
      "type": "function"
    },
    {
      "inputs": [
        {
          "internalType": "uint256",
          "name": "tokenId",
          "type": "uint256"
        }
      ],
      "name": "getApproved",
      "outputs": [
        {
          "internalType": "address",
          "name": "",
          "type": "address"
        }
      ],
      "stateMutability": "view",
      "type": "function"
    },
    {
      "inputs": [
        {
          "internalType": "address",
          "name": "owner",
          "type": "address"
        },
        {
          "internalType": "address",
          "name": "operator",
          "type": "address"
        }
      ],
      "name": "isApprovedForAll",
      "outputs": [
        {
          "internalType": "bool",
          "name": "",
          "type": "bool"
        }
      ],
      "stateMutability": "view",
      "type": "function"
    },
    {
      "inputs": [
        {
          "internalType": "address",
          "name": "to",
          "type": "address"
        }
      ],
      "name": "mint",
      "outputs": [],
      "stateMutability": "nonpayable",
      "type": "function"
    },
    {
      "inputs": [],
      "name": "name",
      "outputs": [
        {
          "internalType": "string",
          "name": "",
          "type": "string"
        }
      ],
      "stateMutability": "view",
      "type": "function"
    },
    {
      "inputs": [],
      "name": "owner",
      "outputs": [
        {
          "internalType": "address",
          "name": "",
          "type": "address"
        }
      ],
      "stateMutability": "view",
      "type": "function"
    },
    {
      "inputs": [
        {
          "internalType": "uint256",
          "name": "tokenId",
          "type": "uint256"
        }
      ],
      "name": "ownerOf",
      "outputs": [
        {
          "internalType": "address",
          "name": "",
          "type": "address"
        }
      ],
      "stateMutability": "view",
      "type": "function"
    },
    {
      "inputs": [],
      "name": "renounceOwnership",
      "outputs": [],
      "stateMutability": "nonpayable",
      "type": "function"
    },
    {
      "inputs": [
        {
          "internalType": "address",
          "name": "from",
          "type": "address"
        },
        {
          "internalType": "address",
          "name": "to",
          "type": "address"
        },
        {
          "internalType": "uint256",
          "name": "tokenId",
          "type": "uint256"
        }
      ],
      "name": "safeTransferFrom",
      "outputs": [],
      "stateMutability": "nonpayable",
      "type": "function"
    },
    {
      "inputs": [
        {
          "internalType": "address",
          "name": "from",
          "type": "address"
        },
        {
          "internalType": "address",
          "name": "to",
          "type": "address"
        },
        {
          "internalType": "uint256",
          "name": "tokenId",
          "type": "uint256"
        },
        {
          "internalType": "bytes",
          "name": "data",
          "type": "bytes"
        }
      ],
      "name": "safeTransferFrom",
      "outputs": [],
      "stateMutability": "nonpayable",
      "type": "function"
    },
    {
      "inputs": [
        {
          "internalType": "address",
          "name": "operator",
          "type": "address"
        },
        {
          "internalType": "bool",
          "name": "approved",
          "type": "bool"
        }
      ],
      "name": "setApprovalForAll",
      "outputs": [],
      "stateMutability": "nonpayable",
      "type": "function"
    },
    {
      "inputs": [
        {
          "internalType": "bytes4",
          "name": "interfaceId",
          "type": "bytes4"
        }
      ],
      "name": "supportsInterface",
      "outputs": [
        {
          "internalType": "bool",
          "name": "",
          "type": "bool"
        }
      ],
      "stateMutability": "view",
      "type": "function"
    },
    {
      "inputs": [],
      "name": "symbol",
      "outputs": [
        {
          "internalType": "string",
          "name": "",
          "type": "string"
        }
      ],
      "stateMutability": "view",
      "type": "function"
    },
    {
      "inputs": [
        {
          "internalType": "uint256",
          "name": "tokenId",
          "type": "uint256"
        }
      ],
      "name": "tokenURI",
      "outputs": [
        {
          "internalType": "string",
          "name": "",
          "type": "string"
        }
      ],
      "stateMutability": "view",
      "type": "function"
    },
    {
      "inputs": [
        {
          "internalType": "address",
          "name": "from",
          "type": "address"
        },
        {
          "internalType": "address",
          "name": "to",
          "type": "address"
        },
        {
          "internalType": "uint256",
          "name": "tokenId",
          "type": "uint256"
        }
      ],
      "name": "transferFrom",
      "outputs": [],
      "stateMutability": "nonpayable",
      "type": "function"
    },
    {
      "inputs": [
        {
          "internalType": "address",
          "name": "newOwner",
          "type": "address"
        }
      ],
      "name": "transferOwnership",
      "outputs": [],
      "stateMutability": "nonpayable",
      "type": "function"
    },
    {
      "inputs": [
        {
          "internalType": "string",
          "name": "newName",
          "type": "string"
        },
        {
          "internalType": "string",
          "name": "newSymbol",
          "type": "string"
        }
      ],
      "name": "updateTokenInfo",
      "outputs": [],
      "stateMutability": "nonpayable",
      "type": "function"
    },
    {
      "inputs": [
        {
          "internalType": "uint256",
          "name": "tokenId",
          "type": "uint256"
        },
        {
          "internalType": "string",
          "name": "tokenURI",
          "type": "string"
        }
      ],
      "name": "updateTokenURI",
      "outputs": [],
      "stateMutability": "nonpayable",
      "type": "function"
    }
  ],
  "bytecode": "0x60806040523480156200001157600080fd5b5060405162002b6538038062002b65833981810160405281019062000037919062000444565b806040518060400160405280600881526020017f44657074684e46540000000000000000000000000000000000000000000000008152506040518060400160405280600381526020017f44504800000000000000000000000000000000000000000000000000000000008152508160009081620000b5919062000729565b508060019081620000c7919062000729565b505050600073ffffffffffffffffffffffffffffffffffffffff168173ffffffffffffffffffffffffffffffffffffffff16036200013f5760006040517f1e4fbdf700000000000000000000000000000000000000000000000000000000815260040162000136919062000821565b60405180910390fd5b62000150816200018660201b60201c565b50826007908162000162919062000729565b50816008908162000174919062000729565b506000600a819055505050506200083e565b6000600660009054906101000a900473ffffffffffffffffffffffffffffffffffffffff16905081600660006101000a81548173ffffffffffffffffffffffffffffffffffffffff021916908373ffffffffffffffffffffffffffffffffffffffff1602179055508173ffffffffffffffffffffffffffffffffffffffff168173ffffffffffffffffffffffffffffffffffffffff167f8be0079c531659141344cd1fd0a4f28419497f9722a3daafe3b4186f6b6457e060405160405180910390a35050565b6000604051905090565b600080fd5b600080fd5b600080fd5b600080fd5b6000601f19601f8301169050919050565b7f4e487b7100000000000000000000000000000000000000000000000000000000600052604160045260246000fd5b620002b5826200026a565b810181811067ffffffffffffffff82111715620002d757620002d66200027b565b5b80604052505050565b6000620002ec6200024c565b9050620002fa8282620002aa565b919050565b600067ffffffffffffffff8211156200031d576200031c6200027b565b5b62000328826200026a565b9050602081019050919050565b60005b838110156200035557808201518184015260208101905062000338565b60008484015250505050565b6000620003786200037284620002ff565b620002e0565b90508281526020810184848401111562000397576200039662000265565b5b620003a484828562000335565b509392505050565b600082601f830112620003c457620003c362000260565b5b8151620003d684826020860162000361565b91505092915050565b600073ffffffffffffffffffffffffffffffffffffffff82169050919050565b60006200040c82620003df565b9050919050565b6200041e81620003ff565b81146200042a57600080fd5b50565b6000815190506200043e8162000413565b92915050565b60008060006060848603121562000460576200045f62000256565b5b600084015167ffffffffffffffff8111156200048157620004806200025b565b5b6200048f86828701620003ac565b935050602084015167ffffffffffffffff811115620004b357620004b26200025b565b5b620004c186828701620003ac565b9250506040620004d4868287016200042d565b9150509250925092565b600081519050919050565b7f4e487b7100000000000000000000000000000000000000000000000000000000600052602260045260246000fd5b600060028204905060018216806200053157607f821691505b602082108103620005475762000546620004e9565b5b50919050565b60008190508160005260206000209050919050565b60006020601f8301049050919050565b600082821b905092915050565b600060088302620005b17fffffffffffffffffffffffffffffffffffffffffffffffffffffffffffffffff8262000572565b620005bd868362000572565b95508019841693508086168417925050509392505050565b6000819050919050565b6000819050919050565b60006200060a62000604620005fe84620005d5565b620005df565b620005d5565b9050919050565b6000819050919050565b6200062683620005e9565b6200063e620006358262000611565b8484546200057f565b825550505050565b600090565b6200065562000646565b620006628184846200061b565b505050565b5b818110156200068a576200067e6000826200064b565b60018101905062000668565b5050565b601f821115620006d957620006a3816200054d565b620006ae8462000562565b81016020851015620006be578190505b620006d6620006cd8562000562565b83018262000667565b50505b505050565b600082821c905092915050565b6000620006fe60001984600802620006de565b1980831691505092915050565b6000620007198383620006eb565b9150826002028217905092915050565b6200073482620004de565b67ffffffffffffffff81111562000750576200074f6200027b565b5b6200075c825462000518565b620007698282856200068e565b600060209050601f831160018114620007a157600084156200078c578287015190505b6200079885826200070b565b86555062000808565b601f198416620007b1866200054d565b60005b82811015620007db57848901518255600182019150602085019450602081019050620007b4565b86831015620007fb5784890151620007f7601f891682620006eb565b8355505b6001600288020188555050505b505050505050565b6200081b81620003ff565b82525050565b600060208201905062000838600083018462000810565b92915050565b612317806200084e6000396000f3fe608060405234801561001057600080fd5b50600436106101215760003560e01c80636a627842116100ad578063a22cb46511610071578063a22cb465146102f2578063b88d4fde1461030e578063c87b56dd1461032a578063e985e9c51461035a578063f2fde38b1461038a57610121565b80636a6278421461026057806370a082311461027c578063715018a6146102ac5780638da5cb5b146102b657806395d89b41146102d457610121565b806318e97fd1116100f457806318e97fd1146101c057806323b872dd146101dc5780632f71d022146101f857806342842e0e146102145780636352211e1461023057610121565b806301ffc9a71461012657806306fdde0314610156578063081812fc14610174578063095ea7b3146101a4575b600080fd5b610140600480360381019061013b9190611786565b6103a6565b60405161014d91906117ce565b60405180910390f35b61015e610488565b60405161016b9190611879565b60405180910390f35b61018e600480360381019061018991906118d1565b61051a565b60405161019b919061193f565b60405180910390f35b6101be60048036038101906101b99190611986565b610536565b005b6101da60048036038101906101d59190611afb565b61054c565b005b6101f660048036038101906101f19190611b57565b610579565b005b610212600480360381019061020d9190611baa565b61067b565b005b61022e60048036038101906102299190611b57565b6106a7565b005b61024a600480360381019061024591906118d1565b6106c7565b604051610257919061193f565b60405180910390f35b61027a60048036038101906102759190611c22565b6106d9565b005b61029660048036038101906102919190611c22565b61070e565b6040516102a39190611c5e565b60405180910390f35b6102b46107c8565b005b6102be6107dc565b6040516102cb919061193f565b60405180910390f35b6102dc610806565b6040516102e99190611879565b60405180910390f35b61030c60048036038101906103079190611ca5565b610898565b005b61032860048036038101906103239190611d86565b6108ae565b005b610344600480360381019061033f91906118d1565b6108cb565b6040516103519190611879565b60405180910390f35b610374600480360381019061036f9190611e09565b610970565b60405161038191906117ce565b60405180910390f35b6103a4600480360381019061039f9190611c22565b610a04565b005b60007f80ac58cd000000000000000000000000000000000000000000000000000000007bffffffffffffffffffffffffffffffffffffffffffffffffffffffff1916827bffffffffffffffffffffffffffffffffffffffffffffffffffffffff1916148061047157507f5b5e139f000000000000000000000000000000000000000000000000000000007bffffffffffffffffffffffffffffffffffffffffffffffffffffffff1916827bffffffffffffffffffffffffffffffffffffffffffffffffffffffff1916145b80610481575061048082610a8a565b5b9050919050565b60606000805461049790611e78565b80601f01602080910402602001604051908101604052809291908181526020018280546104c390611e78565b80156105105780601f106104e557610100808354040283529160200191610510565b820191906000526020600020905b8154815290600101906020018083116104f357829003601f168201915b5050505050905090565b600061052582610af4565b5061052f82610b7c565b9050919050565b6105488282610543610bb9565b610bc1565b5050565b610554610bd3565b806009600084815260200190815260200160002090816105749190612055565b505050565b600073ffffffffffffffffffffffffffffffffffffffff168273ffffffffffffffffffffffffffffffffffffffff16036105eb5760006040517f64a0ae920000000000000000000000000000000000000000000000000000000081526004016105e2919061193f565b60405180910390fd5b60006105ff83836105fa610bb9565b610c5a565b90508373ffffffffffffffffffffffffffffffffffffffff168173ffffffffffffffffffffffffffffffffffffffff1614610675578382826040517f64283d7b00000000000000000000000000000000000000000000000000000000815260040161066c93929190612127565b60405180910390fd5b50505050565b610683610bd3565b81600790816106929190612055565b5080600890816106a29190612055565b505050565b6106c2838383604051806020016040528060008152506108ae565b505050565b60006106d282610af4565b9050919050565b6106e1610bd3565b6000600a5490506106f28282610e74565b600a60008154809291906107059061218d565b91905055505050565b60008073ffffffffffffffffffffffffffffffffffffffff168273ffffffffffffffffffffffffffffffffffffffff16036107815760006040517f89c62b64000000000000000000000000000000000000000000000000000000008152600401610778919061193f565b60405180910390fd5b600360008373ffffffffffffffffffffffffffffffffffffffff1673ffffffffffffffffffffffffffffffffffffffff168152602001908152602001600020549050919050565b6107d0610bd3565b6107da6000610e92565b565b6000600660009054906101000a900473ffffffffffffffffffffffffffffffffffffffff16905090565b60606001805461081590611e78565b80601f016020809104026020016040519081016040528092919081815260200182805461084190611e78565b801561088e5780601f106108635761010080835404028352916020019161088e565b820191906000526020600020905b81548152906001019060200180831161087157829003601f168201915b5050505050905090565b6108aa6108a3610bb9565b8383610f58565b5050565b6108b9848484610579565b6108c5848484846110c7565b50505050565b60606009600083815260200190815260200160002080546108eb90611e78565b80601f016020809104026020016040519081016040528092919081815260200182805461091790611e78565b80156109645780601f1061093957610100808354040283529160200191610964565b820191906000526020600020905b81548152906001019060200180831161094757829003601f168201915b50505050509050919050565b6000600560008473ffffffffffffffffffffffffffffffffffffffff1673ffffffffffffffffffffffffffffffffffffffff16815260200190815260200160002060008373ffffffffffffffffffffffffffffffffffffffff1673ffffffffffffffffffffffffffffffffffffffff16815260200190815260200160002060009054906101000a900460ff16905092915050565b610a0c610bd3565b600073ffffffffffffffffffffffffffffffffffffffff168173ffffffffffffffffffffffffffffffffffffffff1603610a7e5760006040517f1e4fbdf7000000000000000000000000000000000000000000000000000000008152600401610a75919061193f565b60405180910390fd5b610a8781610e92565b50565b60007f01ffc9a7000000000000000000000000000000000000000000000000000000007bffffffffffffffffffffffffffffffffffffffffffffffffffffffff1916827bffffffffffffffffffffffffffffffffffffffffffffffffffffffff1916149050919050565b600080610b008361127e565b9050600073ffffffffffffffffffffffffffffffffffffffff168173ffffffffffffffffffffffffffffffffffffffff1603610b7357826040517f7e273289000000000000000000000000000000000000000000000000000000008152600401610b6a9190611c5e565b60405180910390fd5b80915050919050565b60006004600083815260200190815260200160002060009054906101000a900473ffffffffffffffffffffffffffffffffffffffff169050919050565b600033905090565b610bce83838360016112bb565b505050565b610bdb610bb9565b73ffffffffffffffffffffffffffffffffffffffff16610bf96107dc565b73ffffffffffffffffffffffffffffffffffffffff1614610c5857610c1c610bb9565b6040517f118cdaa7000000000000000000000000000000000000000000000000000000008152600401610c4f919061193f565b60405180910390fd5b565b600080610c668461127e565b9050600073ffffffffffffffffffffffffffffffffffffffff168373ffffffffffffffffffffffffffffffffffffffff1614610ca857610ca7818486611480565b5b600073ffffffffffffffffffffffffffffffffffffffff168173ffffffffffffffffffffffffffffffffffffffff1614610d3957610cea6000856000806112bb565b6001600360008373ffffffffffffffffffffffffffffffffffffffff1673ffffffffffffffffffffffffffffffffffffffff168152602001908152602001600020600082825403925050819055505b600073ffffffffffffffffffffffffffffffffffffffff168573ffffffffffffffffffffffffffffffffffffffff1614610dbc576001600360008773ffffffffffffffffffffffffffffffffffffffff1673ffffffffffffffffffffffffffffffffffffffff168152602001908152602001600020600082825401925050819055505b846002600086815260200190815260200160002060006101000a81548173ffffffffffffffffffffffffffffffffffffffff021916908373ffffffffffffffffffffffffffffffffffffffff160217905550838573ffffffffffffffffffffffffffffffffffffffff168273ffffffffffffffffffffffffffffffffffffffff167fddf252ad1be2c89b69c2b068fc378daa952ba7f163c4a11628f55a4df523b3ef60405160405180910390a4809150509392505050565b610e8e828260405180602001604052806000815250611544565b5050565b6000600660009054906101000a900473ffffffffffffffffffffffffffffffffffffffff16905081600660006101000a81548173ffffffffffffffffffffffffffffffffffffffff021916908373ffffffffffffffffffffffffffffffffffffffff1602179055508173ffffffffffffffffffffffffffffffffffffffff168173ffffffffffffffffffffffffffffffffffffffff167f8be0079c531659141344cd1fd0a4f28419497f9722a3daafe3b4186f6b6457e060405160405180910390a35050565b600073ffffffffffffffffffffffffffffffffffffffff168273ffffffffffffffffffffffffffffffffffffffff1603610fc957816040517f5b08ba18000000000000000000000000000000000000000000000000000000008152600401610fc0919061193f565b60405180910390fd5b80600560008573ffffffffffffffffffffffffffffffffffffffff1673ffffffffffffffffffffffffffffffffffffffff16815260200190815260200160002060008473ffffffffffffffffffffffffffffffffffffffff1673ffffffffffffffffffffffffffffffffffffffff16815260200190815260200160002060006101000a81548160ff0219169083151502179055508173ffffffffffffffffffffffffffffffffffffffff168373ffffffffffffffffffffffffffffffffffffffff167f17307eab39ab6107e8899845ad3d59bd9653f200f220920489ca2b5937696c31836040516110ba91906117ce565b60405180910390a3505050565b60008373ffffffffffffffffffffffffffffffffffffffff163b1115611278578273ffffffffffffffffffffffffffffffffffffffff1663150b7a0261110b610bb9565b8685856040518563ffffffff1660e01b815260040161112d949392919061222a565b6020604051808303816000875af192505050801561116957506040513d601f19601f82011682018060405250810190611166919061228b565b60015b6111ed573d8060008114611199576040519150601f19603f3d011682016040523d82523d6000602084013e61119e565b606091505b5060008151036111e557836040517f64a0ae920000000000000000000000000000000000000000000000000000000081526004016111dc919061193f565b60405180910390fd5b805181602001fd5b63150b7a0260e01b7bffffffffffffffffffffffffffffffffffffffffffffffffffffffff1916817bffffffffffffffffffffffffffffffffffffffffffffffffffffffff19161461127657836040517f64a0ae9200000000000000000000000000000000000000000000000000000000815260040161126d919061193f565b60405180910390fd5b505b50505050565b60006002600083815260200190815260200160002060009054906101000a900473ffffffffffffffffffffffffffffffffffffffff169050919050565b80806112f45750600073ffffffffffffffffffffffffffffffffffffffff168273ffffffffffffffffffffffffffffffffffffffff1614155b1561142857600061130484610af4565b9050600073ffffffffffffffffffffffffffffffffffffffff168373ffffffffffffffffffffffffffffffffffffffff161415801561136f57508273ffffffffffffffffffffffffffffffffffffffff168173ffffffffffffffffffffffffffffffffffffffff1614155b801561138257506113808184610970565b155b156113c457826040517fa9fbf51f0000000000000000000000000000000000000000000000000000000081526004016113bb919061193f565b60405180910390fd5b811561142657838573ffffffffffffffffffffffffffffffffffffffff168273ffffffffffffffffffffffffffffffffffffffff167f8c5be1e5ebec7d5bd14f71427d1e84f3dd0314c0f7b2291e5b200ac8c7c3b92560405160405180910390a45b505b836004600085815260200190815260200160002060006101000a81548173ffffffffffffffffffffffffffffffffffffffff021916908373ffffffffffffffffffffffffffffffffffffffff16021790555050505050565b61148b838383611560565b61153f57600073ffffffffffffffffffffffffffffffffffffffff168373ffffffffffffffffffffffffffffffffffffffff160361150057806040517f7e2732890000000000000000000000000000000000000000000000000000000081526004016114f79190611c5e565b60405180910390fd5b81816040517f177e802f0000000000000000000000000000000000000000000000000000000081526004016115369291906122b8565b60405180910390fd5b505050565b61154e8383611621565b61155b60008484846110c7565b505050565b60008073ffffffffffffffffffffffffffffffffffffffff168373ffffffffffffffffffffffffffffffffffffffff161415801561161857508273ffffffffffffffffffffffffffffffffffffffff168473ffffffffffffffffffffffffffffffffffffffff1614806115d957506115d88484610970565b5b8061161757508273ffffffffffffffffffffffffffffffffffffffff166115ff83610b7c565b73ffffffffffffffffffffffffffffffffffffffff16145b5b90509392505050565b600073ffffffffffffffffffffffffffffffffffffffff168273ffffffffffffffffffffffffffffffffffffffff16036116935760006040517f64a0ae9200000000000000000000000000000000000000000000000000000000815260040161168a919061193f565b60405180910390fd5b60006116a183836000610c5a565b9050600073ffffffffffffffffffffffffffffffffffffffff168173ffffffffffffffffffffffffffffffffffffffff16146117155760006040517f73c6ac6e00000000000000000000000000000000000000000000000000000000815260040161170c919061193f565b60405180910390fd5b505050565b6000604051905090565b600080fd5b600080fd5b60007fffffffff0000000000000000000000000000000000000000000000000000000082169050919050565b6117638161172e565b811461176e57600080fd5b50565b6000813590506117808161175a565b92915050565b60006020828403121561179c5761179b611724565b5b60006117aa84828501611771565b91505092915050565b60008115159050919050565b6117c8816117b3565b82525050565b60006020820190506117e360008301846117bf565b92915050565b600081519050919050565b600082825260208201905092915050565b60005b83811015611823578082015181840152602081019050611808565b60008484015250505050565b6000601f19601f8301169050919050565b600061184b826117e9565b61185581856117f4565b9350611865818560208601611805565b61186e8161182f565b840191505092915050565b600060208201905081810360008301526118938184611840565b905092915050565b6000819050919050565b6118ae8161189b565b81146118b957600080fd5b50565b6000813590506118cb816118a5565b92915050565b6000602082840312156118e7576118e6611724565b5b60006118f5848285016118bc565b91505092915050565b600073ffffffffffffffffffffffffffffffffffffffff82169050919050565b6000611929826118fe565b9050919050565b6119398161191e565b82525050565b60006020820190506119546000830184611930565b92915050565b6119638161191e565b811461196e57600080fd5b50565b6000813590506119808161195a565b92915050565b6000806040838503121561199d5761199c611724565b5b60006119ab85828601611971565b92505060206119bc858286016118bc565b9150509250929050565b600080fd5b600080fd5b7f4e487b7100000000000000000000000000000000000000000000000000000000600052604160045260246000fd5b611a088261182f565b810181811067ffffffffffffffff82111715611a2757611a266119d0565b5b80604052505050565b6000611a3a61171a565b9050611a4682826119ff565b919050565b600067ffffffffffffffff821115611a6657611a656119d0565b5b611a6f8261182f565b9050602081019050919050565b82818337600083830152505050565b6000611a9e611a9984611a4b565b611a30565b905082815260208101848484011115611aba57611ab96119cb565b5b611ac5848285611a7c565b509392505050565b600082601f830112611ae257611ae16119c6565b5b8135611af2848260208601611a8b565b91505092915050565b60008060408385031215611b1257611b11611724565b5b6000611b20858286016118bc565b925050602083013567ffffffffffffffff811115611b4157611b40611729565b5b611b4d85828601611acd565b9150509250929050565b600080600060608486031215611b7057611b6f611724565b5b6000611b7e86828701611971565b9350506020611b8f86828701611971565b9250506040611ba0868287016118bc565b9150509250925092565b60008060408385031215611bc157611bc0611724565b5b600083013567ffffffffffffffff811115611bdf57611bde611729565b5b611beb85828601611acd565b925050602083013567ffffffffffffffff811115611c0c57611c0b611729565b5b611c1885828601611acd565b9150509250929050565b600060208284031215611c3857611c37611724565b5b6000611c4684828501611971565b91505092915050565b611c588161189b565b82525050565b6000602082019050611c736000830184611c4f565b92915050565b611c82816117b3565b8114611c8d57600080fd5b50565b600081359050611c9f81611c79565b92915050565b60008060408385031215611cbc57611cbb611724565b5b6000611cca85828601611971565b9250506020611cdb85828601611c90565b9150509250929050565b600067ffffffffffffffff821115611d0057611cff6119d0565b5b611d098261182f565b9050602081019050919050565b6000611d29611d2484611ce5565b611a30565b905082815260208101848484011115611d4557611d446119cb565b5b611d50848285611a7c565b509392505050565b600082601f830112611d6d57611d6c6119c6565b5b8135611d7d848260208601611d16565b91505092915050565b60008060008060808587031215611da057611d9f611724565b5b6000611dae87828801611971565b9450506020611dbf87828801611971565b9350506040611dd0878288016118bc565b925050606085013567ffffffffffffffff811115611df157611df0611729565b5b611dfd87828801611d58565b91505092959194509250565b60008060408385031215611e2057611e1f611724565b5b6000611e2e85828601611971565b9250506020611e3f85828601611971565b9150509250929050565b7f4e487b7100000000000000000000000000000000000000000000000000000000600052602260045260246000fd5b60006002820490506001821680611e9057607f821691505b602082108103611ea357611ea2611e49565b5b50919050565b60008190508160005260206000209050919050565b60006020601f8301049050919050565b600082821b905092915050565b600060088302611f0b7fffffffffffffffffffffffffffffffffffffffffffffffffffffffffffffffff82611ece565b611f158683611ece565b95508019841693508086168417925050509392505050565b6000819050919050565b6000611f52611f4d611f488461189b565b611f2d565b61189b565b9050919050565b6000819050919050565b611f6c83611f37565b611f80611f7882611f59565b848454611edb565b825550505050565b600090565b611f95611f88565b611fa0818484611f63565b505050565b5b81811015611fc457611fb9600082611f8d565b600181019050611fa6565b5050565b601f82111561200957611fda81611ea9565b611fe384611ebe565b81016020851015611ff2578190505b612006611ffe85611ebe565b830182611fa5565b50505b505050565b600082821c905092915050565b600061202c6000198460080261200e565b1980831691505092915050565b6000612045838361201b565b9150826002028217905092915050565b61205e826117e9565b67ffffffffffffffff811115612077576120766119d0565b5b6120818254611e78565b61208c828285611fc8565b600060209050601f8311600181146120bf57600084156120ad578287015190505b6120b78582612039565b86555061211f565b601f1984166120cd86611ea9565b60005b828110156120f5578489015182556001820191506020850194506020810190506120d0565b86831015612112578489015161210e601f89168261201b565b8355505b6001600288020188555050505b505050505050565b600060608201905061213c6000830186611930565b6121496020830185611c4f565b6121566040830184611930565b949350505050565b7f4e487b7100000000000000000000000000000000000000000000000000000000600052601160045260246000fd5b60006121988261189b565b91507fffffffffffffffffffffffffffffffffffffffffffffffffffffffffffffffff82036121ca576121c961215e565b5b600182019050919050565b600081519050919050565b600082825260208201905092915050565b60006121fc826121d5565b61220681856121e0565b9350612216818560208601611805565b61221f8161182f565b840191505092915050565b600060808201905061223f6000830187611930565b61224c6020830186611930565b6122596040830185611c4f565b818103606083015261226b81846121f1565b905095945050505050565b6000815190506122858161175a565b92915050565b6000602082840312156122a1576122a0611724565b5b60006122af84828501612276565b91505092915050565b60006040820190506122cd6000830185611930565b6122da6020830184611c4f565b939250505056fea2646970667358221220b2005b3af22cc62ea47af3a1525682e5b4fc12d15311cb875786b8e094a9f12064736f6c63430008180033",
  "linkReferences": {},
  "deployedLinkReferences": {}
}